:100000000C9446000C9402040C9465000C9465005A
:100010000C9465000C9465000C9465000C946500CC
:100020000C9465000C9465000C9465000C946500BC
:100030000C94B1030C9465000C9465000C9465005D
:100040000C9465000C9465000C9465000C9465009C
:100050000C9465000C9465000C9465000C9465008C
:100060000C9465000C9465000C9465000C9465007C
:100070000C9465000C9465000C9465000C9465006C
:100080000C9465000C9465000C94650011241FBE4F
:10009000CFEFD0E1DEBFCDBF11E0A0E0B1E0EAEAF2
:1000A000F8E000E00BBF02C007900D92AE31B1073F
:1000B000D9F711E0AEE1B1E001C01D92A53AB10758
:1000C000E1F70E9416010C9400000C9400001FBC84
:1000D0008CE08EBD80E88FBF80E187BF86BF08952A
:1000E00085E184BB8FEE85BB80E88FBF82E0809383
:1000F0006A0081E089BF0895E5E6F0E09081997F8C
:10010000908390819160908390E1292F2A95F1F757
:100110008BBB9A95F1F780818E7F8083089581E073
:100120000E947C0084EF91E00197F1F708950F930E
:100130001F938FEF8ABB87E08093640088E30E945F
:100140007C0004EF11E0C8010197F1F788E30E94F9
:100150007C00C8010197F1F788E30E947C00C80188
:100160000197F1F78CE00E947C00C8010197F1F73C
:1001700081E00E947C00C8010197F1F786E00E94AF
:100180007C00C8010197F1F71F910F9108950F931B
:100190001F938EEF81BB8FEF82BB04EF11E0C8018C
:1001A0000197F1F70E949700C8010197F1F785E1E7
:1001B00084BB8FEE85BB90E89FBF82E080936A008E
:1001C00081E089BFF8013197F1F71FBC8CE08EBD4B
:1001D0009FBF80E187BF86BFC8010197F1F71F91DC
:1001E0000F910895E5E6F0E090819460908390810E
:1001F0009D7F908390819160908390E19A95F1F733
:100200008BBB82EE94E00197F1F780818E7F808333
:100210000895CF93DF93EC0103C00E94F200219672
:1002200088818823D1F7DF91CF9108950E94C7007C
:10023000E4E2F1E080E090E08193919301968D33C8
:100240009105D1F780E091E00E94090184E291E0FC
:100250009093A4018093A3019093A2018093A101A4
:1002600042969093A00180939F0181E480939E0128
:1002700082E19AE79BBD8ABDFDCF0E94F20084EF28
:1002800091E00197F1F708950F931F93CF93DF93B8
:10029000EC010CE41DE10CC089910E94F200C80140
:1002A0000197F1F788E10E947C00C8010197F1F7FE
:1002B0008981882389F788810E943D01DF91CF9150
:1002C0001F910F9108958295880F880F807C860F6B
:1002D00080680E947C008AEF90E00197F1F7089512
:1002E000DF93CF93CDB7DEB728970FB6F894DEBF74
:1002F0000FBECDBFDE011196ECE0F1E088E0019089
:100300000D928150E1F78091220190912301019695
:100310009093230180932201049721F410922301EA
:1003200010922201E0912201F0912301EE0FFF1FB4
:10033000EC0FFD1F80E061810E94630128960FB6DB
:10034000F894DEBF0FBECDBFCF91DF9108950F931C
:100350001F93082F162F4115510551F480E06AE0D4
:100360000E946301812F0E943D0180E069E019C075
:100370004130510551F480E067E00E946301812F14
:100380000E943D0180E066E00CC04230510571F4EE
:1003900080E064E00E946301812F0E943D0180E0C3
:1003A00063E00E946301802F0E943D011F910F9125
:1003B00008950F931F93DF93CF93CDB7DEB72A979E
:1003C0000FB6F894DEBF0FBECDBFDE011196E4E19B
:1003D000F1E08AE001900D928150E1F7E091A301F4
:1003E000F091A40100811181C8016AE070E00E94CF
:1003F00041049B01FE0131962E0F3F1FC8016AE0A8
:1004000070E00E944104E80FF91FD9018C916081CE
:1004100040E050E00E94A7018091200190912101CD
:10042000892B31F480912201909123010297F1F4FC
:10043000E091A101F091A20100811181C8016AE05F
:1004400070E00E9441049B01FE0131962E0F3F1F78
:10045000C8016AE070E00E944104E80FF91FD90169
:100460008C91608141E050E00E94A70180912001C1
:1004700090912101029730F4809122019091230103
:10048000019711F51092210110922001E0919F0136
:10049000F091A00100811181C8016AE070E00E9422
:1004A00041049B01FE0131962E0F3F1FC8016AE0F7
:1004B00070E00E944104E80FF91FD9018C9160811E
:1004C00042E050E00E94A7012A960FB6F894DEBFE2
:1004D0000FBECDBFCF91DF911F910F9108958091F5
:1004E0009E01803511F481E401C080E580939E0176
:1004F00080E060E00E94630180919E010E943D01C6
:100500000895209122013091230121303105A9F471
:10051000E0919F01F091A0013297F093A001E09348
:100520009F013296808191810197F9F48CE391E0EB
:100530009093A00180939F012FC022303105A9F430
:10054000E091A101F091A2013297F093A201E09312
:10055000A101329680819181892BF1F48AE991E0A1
:100560009093A2018093A10117C023303105A1F41B
:10057000E091A301F091A4013297F093A401E093DC
:10058000A301329680819181892B31F48AE991E02F
:100590009093A4018093A3010E94D901809122012C
:1005A00090912301892B11F40E946F0208952091EC
:1005B00022013091230121303105A9F4E0919F01FE
:1005C000F091A0013296F093A001E0939F01329741
:1005D000828193810D97F9F486E291E09093A001D6
:1005E00080939F012FC022303105A9F4E091A10131
:1005F000F091A2013296F093A201E093A10132970B
:1006000082819381CC97F1F484E291E09093A201EE
:100610008093A10117C023303105A1F4E091A3011B
:10062000F091A4013296F093A401E093A3013297D4
:1006300082819381CC9731F484E291E09093A4017C
:100640008093A3010E94D9018091220190912301FE
:10065000892B11F40E946F02089583B38F77893735
:1006600019F40E94D70216C08C3719F40E94810237
:1006700011C08D3619F40E9470010CC0833751F4FB
:1006800081E080931F0110922301109222018CE0DF
:100690000E947C00809BFECF0895E091A301F09121
:1006A000A40180819181CC97A9F48091A1019091BE
:1006B000A20102969093A2018093A10184E291E0AD
:1006C0009093A4018093A30181E090E09093210195
:1006D00080932001E091A101F091A201808191819C
:1006E000CC97E1F4E0919F01F091A0013296F09354
:1006F000A001E0939F013297828193810C9711F4BE
:100700000E946F0284E291E09093A2018093A10184
:1007100082E090E09093210180932001E0919F017D
:10072000F091A001808191810D9761F486E291E0C2
:100730009093A00180939F0182E090E0909321012B
:10074000809320010E94D90108958091A301909186
:10075000A40102969093A4018093A3010E944D03EB
:1007600008951F920F920FB60F920BB60F9211249D
:100770002F933F934F935F936F937F938F939F93A9
:10078000AF93BF93EF93FF930E94A503FF91EF9167
:10079000BF91AF919F918F917F916F915F914F9199
:1007A0003F912F910F900BBE0F900FBE0F901F9097
:1007B0001895FF920F931F9380E060E00E94630101
:1007C0008EE00E947C009BEFF92E0EEF1FEEF5BA33
:1007D0000E942D0380911F01813071F005BB0E94A2
:1007E0002D0380911F01813039F015BB0E942D032C
:1007F00080911F01813059F710921F011F910F91B5
:10080000FF9008951F920F920FB60F920BB60F92A2
:1008100011242F933F934F935F936F937F938F9305
:100820009F93AF93BF93EF93FF9388EA91E601976D
:10083000F1F780990EC083B38F7780931E018736BE
:1008400041F488E08EBD0E94D9038CE08EBD8FEE0E
:1008500085BBFF91EF91BF91AF919F918F917F9158
:100860006F915F914F913F912F910F900BBE0F9021
:100870000FBE0F901F9018958EEF81BB8FEF82BB3C
:100880000895AA1BBB1B51E107C0AA1FBB1FA617D7
:10089000B70710F0A61BB70B881F991F5A95A9F729
:0A08A00080959095BC01CD010895EC
:1008AA00414D2030393A30303A30300000000400EF
:0E08BA0007000A003031323334353637383912
:00000001FF
