:100000000C9446000C94AA000C9465000C946500B6
:100010000C9465000C9465000C9465000C946500CC
:100020000C9465000C9465000C9465000C946500BC
:100030000C9465000C9465000C9465000C946500AC
:100040000C9465000C9465000C9465000C9465009C
:100050000C9465000C9465000C9465000C9465008C
:100060000C9465000C9465000C9465000C9465007C
:100070000C9465000C9465000C9465000C9465006C
:100080000C9465000C9465000C94650011241FBE4F
:10009000CFEFD0E1DEBFCDBF11E0A0E0B1E0E2EEF6
:1000A000F3E000E00BBF02C007900D92A030B10753
:1000B000D9F711E0A0E0B1E001C01D92A430B10772
:1000C000E1F70E94C2010C94EF010C9400009091A2
:1000D0000101892F880F82BB9736B1F1983680F4E1
:1000E0009F3461F1903538F49B33F1F09E33F1F099
:1000F0009F3261F51DC09B35E9F09E3539F51CC076
:10010000963701F1973728F49D3661F09337F1F473
:1001100017C0993719F09C37C9F402C081E317C0A2
:1001200082E315C083E313C084E311C085E30FC0ED
:1001300086E30DC087E30BC088E309C089E307C0ED
:100140008AE205C080E303C083E201C085E68093B4
:10015000010108951F920F920FB60F9211248F93F1
:100160009F9388EA91E60197F1F7809907C081E0B3
:100170008093000183B38F77809301019F918F91CA
:100180000F900FBE0F901F90189585E184BB8FEFE5
:1001900085BB80E88FBF82E080936A0081E089BFE1
:1001A00008958EEF81BB8FEF82BB0895E5E6F0E006
:1001B0009081997F908390819160908390E1292F25
:1001C0002A95F1F78BBB9A95F1F780818E7F80831A
:1001D000089581E00E94D60084EF91E00197F1F745
:1001E00008950F931F938FEF8ABB87E0809364007D
:1001F00088E30E94D60004EF11E0C8010197F1F7EF
:1002000088E30E94D600C8010197F1F788E30E94B5
:10021000D600C8010197F1F78EE00E94D600C80110
:100220000197F1F781E00E94D600C8010197F1F72C
:1002300086E00E94D600C8010197F1F71F910F9147
:100240000895909165009460909365009091650089
:100250009D7F9093650090916500916090936500FB
:1002600090E19A95F1F78BBB80EE9EE229E130E0B8
:10027000F9013197F1F70197D9F7809165008E7FE9
:10028000809365000895CF93DF93EC0103C00E9433
:100290002101219688818823D1F7DF91CF9108959C
:1002A0000E94210184EF91E00197F1F708950F93E7
:1002B0001F93CF93DF93EC010CE41DE10CC08991F7
:1002C0000E942101C8010197F1F788E10E94D60040
:1002D000C8010197F1F78981882389F788810E94F5
:1002E0005001DF91CF911F910F9108958295880F52
:1002F000880F807C860F80680E94D6008AEF90E08D
:100300000197F1F708958091020190910301019600
:100310009093030180930201419741F481E060E0F2
:100320000E94760184EF91E00197F1F7809102013C
:1003300090910301819781F481E090E09093030113
:10034000809302010E94E90080E060E00E94760153
:1003500084EF91E00197F1F7089588E893E1019720
:10036000F1F780910001813061F4109200010E9448
:1003700067000E948301809101010E945001809BCF
:10038000FECF0895FF920F931F938EEF81BBFF2442
:10039000FA94F2BA04EF11E0C8010197F1F70E9454
:1003A000F100C8010197F1F785E184BBF5BA80E857
:1003B0008FBF82E080936A0081E089BFC801019706
:1003C000F1F781E1F82E14E105E0F5BA0E94AD01E4
:1003D00015BB0E94AD0105BB0E94AD01F6CFF8949C
:0203E000FFCF4D
:00000001FF
