:100000000C9446000C945D000C945D000C945D0013
:100010000C945D000C945D000C945D000C945D00EC
:100020000C945D000C945D000C945D000C945D00DC
:100030000C945D000C945D000C945D000C945D00CC
:100040000C945D000C945D000C945D000C945D00BC
:100050000C945D000C945D000C945D000C945D00AC
:100060000C945D000C945D000C945D000C945D009C
:100070000C945D000C945D000C945D000C945D008C
:100080000C945D000C945D000C945D0011241FBE67
:10009000CFEFD0E1DEBFCDBF11E0A0E0B1E0E6EEF2
:1000A000F4E000E00BBF02C007900D92AE38B1073C
:1000B000D9F70E945D020C9471020C9400009C011F
:1000C000885C9240C39718F440E051E002C042E0DF
:1000D00051E0C9018F589240C99710F444E051E0B3
:1000E000C901855792404A9710F447E051E0C90191
:1000F000865692400F9710F44AE051E0C9018855A6
:1001000092400E9710F44DE051E0C9018A5492409C
:100110000E9710F440E151E0C9018B5392400F97C4
:1001200010F443E151E0C9018C5292400F9710F452
:1001300046E151E0C901815292400B9710F449E128
:1001400051E0C901865192400B9710F44CE151E007
:10015000C9018B5092400B9710F44FE151E0C90157
:10016000805092400B9710F442E251E0C901835F46
:1001700091400D9710F445E251E0C901885E91402D
:100180000B9710F448E251E0C9018D5D91400B9747
:1001900010F44BE251E0C901825D91400B9710F4DD
:1001A0004EE251E0C901875C91400B9710F441E3A6
:1001B00051E0C901885B91400F9710F444E351E08E
:1001C000C901845B9140049710F447E351E0C901F1
:1001D000805B9140049710F44AE351E0C9018C5AC6
:1001E0009140049710F44DE351E0C901875A9140C2
:1001F000059710F440E451E0C901825A91400597F7
:1002000010F443E451E0C9018D599140059710F471
:1002100046E451E0C90188589140459710F449E4FB
:1002200051E0C90183579140459710F44CE451E0E7
:10023000C9018E559140459710F44FE451E0C90132
:1002400088549140469710F442E551E0C9018B5122
:1002500091408D9710F445E551E0C901845F9040CD
:10026000879710F448E551E0C901815D904083977C
:1002700010F44BE551E0C901835B90404E9710F4B8
:100280004EE551E0C901895990404A9710F441E682
:1002900051E0C90183589040469710F444E651E07C
:1002A000C90180579040439710F447E651E02D551F
:1002B00030402331310510F44AE651E0CA01089577
:1002C000E5E6F0E09081997F908390819160908342
:1002D00090E1292F2A95F1F78BBB9A95F1F7808150
:1002E0008E7F808308950F931F938FEF8ABB809337
:1002F000640088E30E94600104EF11E0C8010197E7
:10030000F1F788E30E946001C8010197F1F788E3E3
:100310000E946001C8010197F1F78DE00E94600121
:10032000C8010197F1F781E00E946001C8010197BF
:10033000F1F786E00E946001C8010197F1F71F9173
:100340000F9108950E94730184EF91E00197F1F7F6
:1003500081E487B983E886B9089581E00E9460014D
:1003600084EF91E00197F1F7089590916500946012
:1003700090936500909165009D7F909365009091AA
:10038000650091609093650090E19A95F1F78BBBC1
:1003900080EE9EE229E130E0F9013197F1F7019713
:1003A000D9F7809165008E7F8093650008950E9443
:1003B000B50184EF91E00197F1F708951F93DF9362
:1003C000CF93CDB7DEB763970FB6F894DEBF0FBEFD
:1003D000CDBF9C01DE011496EDE7F1E080E10190D4
:1003E0000D928150E1F7E32FFF27E7FDFA95DE013B
:1003F0001496EA0FFB1F80818983F901E07FF0707A
:1004000094E0F595E7959A95E1F7EA0FFB1F908147
:100410009A832F703070A20FB31F1C911B830E9410
:10042000D7018A810E94D701812F0E94D70163964C
:100430000FB6F894DEBF0FBECDBFCF91DF911F91F5
:100440000895CF93DF93EC0103C00E94B50121967C
:1004500088818823D1F7DF91CF9108958295880F05
:10046000880F807C860F80680E9460018AEF90E090
:100470000197F1F708950F931F9380E060E00E94C9
:100480002E0204B115B11370C8010E94DE0181E093
:1004900060E00E942E02C8010E945F008C018DE680
:1004A00091E00E942102C8010E94210285E791E0AB
:1004B0000E9421021F910F910895CF93DF930E9414
:1004C000A201CAEFD0E0369ACE010197F1F7369932
:1004D000FECF0E943B02F7CF81E487B983E886B95B
:0604E0000895F894FFCF1F
:1004E600350030003130003135003136003137000B
:1004F60031380031390032300032310032320032C8
:1005060033003234003235003236003237003238AA
:1005160000323900333000333100333200333300D8
:100526003334003335003336003337003338003385
:10053600390034300034350035300035350036307A
:1005460000363500373000373500383000617070BE
:10055600726F7820006465677265654300303132DA
:0E056600333435363738394142434445460078
:00000001FF
