:100000000C9446000C94B3020C9465000C946500AB
:100010000C9465000C9465000C9465000C946500CC
:100020000C9465000C9465000C9465000C946500BC
:100030000C94EC050C9465000C9465000C94650020
:100040000C9465000C9465000C9465000C9465009C
:100050000C9465000C9465000C9465000C9465008C
:100060000C9465000C9465000C9465000C9465007C
:100070000C9465000C9465000C9465000C9465006C
:100080000C9465000C9465000C94650011241FBE4F
:10009000CFEFD0E1DEBFCDBF11E0A0E0B1E0ECE1F9
:1000A000F0E100E00BBF02C007900D92AE3CB1073B
:1000B000D9F712E0AEECB1E001C01D92A735B1074F
:1000C000E1F70E94DB070C9400000C940000809183
:1000D000CE01813019F020E030E022C01092CE0134
:1000E00083B38F778937F1F08C3719F422E030E051
:1000F00015C08D3619F423E030E010C08B3319F4AD
:1001000024E030E00BC08E3319F425E030E006C067
:1001100020E030E0833711F42AE030E0809BFECF0E
:10012000C901089521E030E0F9CFFF920F931F93AA
:10013000CF93DF93EC018BEFF82E0EEF1FEEF5BAA5
:100140000E9467009C01009779F4C230D10561F0EC
:1001500005BB0E9467009C01009731F415BB0E940B
:1001600067009C01009759F3C901DF91CF911F915E
:100170000F91FF9008951FBC8CE08EBD80E88FBF6B
:1001800080E187BF86BF08958091CF018736B1F1A6
:10019000883680F48F3461F1803538F48B33F1F098
:1001A0008E33F1F08F3261F51DC08B35E9F08E355D
:1001B00039F51CC0863701F1873728F48D3661F098
:1001C0008337F1F417C0893719F08C37C9F402C0AE
:1001D00081E317C082E315C083E313C084E311C039
:1001E00085E30FC086E30DC087E30BC088E309C039
:1001F00089E307C08AE205C080E303C083E201C04F
:1002000085E68093CF010895CF92DF92EF92FF921F
:100210000F931F93DF93CF93CDB7DEB728970FB619
:10022000F894DEBF0FBECDBFDE011196E4EBF1E026
:1002300088E001900D928150E1F780E887BB80E073
:1002400090E0EE24FF246E010894C11CD11C17C05D
:10025000F601EE0DFF1D808183BD00E010E082E01D
:1002600090E00E9495008A30910599F00F5F1F4F32
:1002700021E6083A120799F70894E11CF11C28E0DE
:10028000E216F1042CF38A30910519F0EE24FF24D4
:10029000F6CF17BA28960FB6F894DEBF0FBECDBFC3
:1002A000CF91DF911F910F91FF90EF90DF90CF9052
:1002B000089580E887BB8BE185BD08959C01885C2B
:1002C0009240C39718F440E051E002C042E051E090
:1002D000C9018F589240C99710F444E051E0C90118
:1002E000855792404A9710F447E051E0C90186567D
:1002F00092400F9710F44AE051E0C90188559240AE
:100300000E9710F44DE051E0C9018A5492400E97C7
:1003100010F440E151E0C9018B5392400F9710F463
:1003200043E151E0C9018C5292400F9710F446E12D
:1003300051E0C901815292400B9710F449E151E01C
:10034000C901865192400B9710F44CE151E0C9016C
:100350008B5092400B9710F44FE151E0C90180504F
:1003600092400B9710F442E251E0C901835F914043
:100370000D9710F445E251E0C901885E91400B975A
:1003800010F448E251E0C9018D5D91400B9710F4E3
:100390004BE251E0C901825D91400B9710F44EE2AF
:1003A00051E0C901875C91400B9710F441E351E0A3
:1003B000C901885B91400F9710F444E351E0C901F3
:1003C000845B9140049710F447E351E0C901805BDE
:1003D0009140049710F44AE351E0C9018C5A9140CE
:1003E000049710F44DE351E0C901875A91400597F5
:1003F00010F440E451E0C901825A9140059710F48D
:1004000043E451E0C9018D599140059710F446E449
:1004100051E0C90188589140459710F449E451E0F2
:10042000C90183579140459710F44CE451E0C9014C
:100430008E559140459710F44FE451E0C90188541E
:100440009140469710F442E551E0C9018B5191402B
:100450008D9710F445E551E0C901845F904087977E
:1004600010F448E551E0C901815D9040839710F494
:100470004BE551E0C901835B90404E9710F44EE587
:1004800051E0C901895990404A9710F441E651E082
:10049000C90183589040469710F444E651E0C901E1
:1004A00080579040439710F447E651E02D55304077
:1004B0002331310510F44AE651E0CA010895CF9284
:1004C000DF92EF92FF920F931F93DF93CF93CDB7FD
:1004D000DEB72A970FB6F894DEBF0FBECDBFDE01A0
:1004E0001196EAE9F1E08AE001900D928150E1F77E
:1004F00080E090E000E010E06E010894C11CD11C87
:1005000029E1E22EF12C15C0F601E00FF11F8081E8
:1005100082BB88EA91E6F7013197F1F70197D9F7A5
:1005200082E090E00E9495008A30910559F00F5FBB
:100530001F4F0A30110544F38A30910519F000E08D
:1005400010E0F7CF8FEF82BB2A960FB6F894DEBF8C
:100550000FBECDBFCF91DF911F910F91FF90EF9014
:10056000DF90CF9008951F920F920FB60F92112433
:100570008F939F9388EA91E60197F1F780990BC0DA
:1005800081E08093CE0183B38093CF018091CF012E
:100590008F778093CF019F918F910F900FBE0F9017
:1005A0001F90189585E184BB85E085BB80E88FBFEF
:1005B00082E080936A0081E089BF08958EEF81BB5D
:1005C0008FEF82BB0895E5E6F0E09081997F9083FC
:1005D00090819160908390E1292F2A95F1F78BBB50
:1005E0009A95F1F780818E7F8083089581E00E9443
:1005F000E30284EF91E00197F1F708950F931F93C1
:100600008FEF8ABB87E08093640088E30E94E30257
:1006100004EF11E0C8010197F1F788E30E94E302BB
:10062000C8010197F1F788E30E94E302C80101972E
:10063000F1F78EE00E94E302C8010197F1F781E033
:100640000E94E302C8010197F1F786E00E94E302ED
:10065000C8010197F1F71F910F9108950F931F9310
:100660008EEF81BB8FEF82BB04EF11E0C8010197D1
:10067000F1F70E94FE02C8010197F1F785E184BB02
:1006800085E085BB90E89FBF82E080936A0081E0AF
:1006900089BFF8013197F1F781E487B983E886B91A
:1006A000F8013197F1F797BB8BE185BDC801019740
:1006B000F1F71F910F910895E5E6F0E090819460C5
:1006C000908390819D7F908390819160908390E151
:1006D0009A95F1F78BBB88E893E10197F1F7808158
:1006E0008E7F80830895CF93DF93EC0103C00E9437
:1006F0005C03219688818823D1F7DF91CF910895FB
:100700000E945C0384EF91E00197F1F7089581E185
:1007100085BB84EF91E00197F1F793B39F778091C8
:10072000CE018823D1F39337C1F71092CE01809B7D
:10073000FECF89E70E948003089585E085BB84EFA2
:1007400091E00197F1F793B39F778091CE018823D1
:10075000D1F39736C1F71092CE01809BFECF87E789
:100760000E94800308951F93DF93CF93CDB7DEB728
:1007700063970FB6F894DEBF0FBECDBF9C01DE01BC
:100780001496E4EAF1E080E101900D928150E1F7E6
:10079000E32FFF27E7FDFA95DE011496EA0FFB1F12
:1007A00080818983F901E07FF07044E0F595E79559
:1007B0004A95E1F7EA0FFB1F90819A832F70307002
:1007C000A20FB31F1C911B830E9480038A810E9489
:1007D0008003812F0E94800363960FB6F894DEBFDA
:1007E0000FBECDBFCF91DF911F9108958295880FE5
:1007F000880F807C860F80680E94E3028AEF90E079
:100800000197F1F708950F931F9380E060E00E9435
:10081000F60304B115B11370C8010E94B30381E05F
:1008200060E00E94F603C8010E945E018C018DE623
:1008300091E00E947303C8010E94730385E791E071
:100840000E94730380E593EC29E130E0F9013197D0
:10085000F1F70197D9F71F910F910895CF93DF9387
:100860000E94F602CAEFD0E0369ACE010197F1F766
:100870003699FECF0E94030482E090E00E9495002A
:100880000A9791F7DF91CF9108958091D0018F5F02
:100890008093D0018091D001813141F481E060E00A
:1008A0000E94F60384EF91E00197F1F78091D00167
:1008B000813269F481E08093D0010E94F60280E0E9
:1008C00060E00E94F60384EF91E00197F1F708954C
:1008D00088E893E10197F1F78091CE018130A1F48E
:1008E0001092CE010E94C4000E9445048091CF0165
:1008F0008A3241F08091CF01833221F08091CF0183
:100900000E948003809BFECF0895FF920F931F9358
:100910000E94F60261E1F62E04E115E0F5BA0E94AC
:1009200068048091CF018A3271F005BB0E9468048F
:100930008091CF018A3239F015BB0E946804809102
:10094000CF018A3259F71F910F91FF9008950F93AD
:100950001F93082F162F4115510551F480E06AE0CE
:100960000E94F603812F0E94800380E069E019C095
:100970004130510551F480E067E00E94F603812F79
:100980000E94800380E066E00CC04230510571F4A3
:1009900080E064E00E94F603812F0E94800380E0E3
:1009A00063E00E94F603802F0E9480031F910F9145
:1009B00008950F931F93DF93CF93CDB7DEB72A9798
:1009C0000FB6F894DEBF0FBECDBFDE011196ECEB83
:1009D000F1E08AE001900D928150E1F78091D2011F
:1009E0009091D301E0915502F0915602808191815E
:1009F000008111816AE070E00E94FA079B01FE010C
:100A000031962E0F3F1FC8016AE070E00E94FA077E
:100A1000E80FF91FD9018C91608140E050E00E94FD
:100A2000A7048091D2019091D301892B31F4809158
:100A3000D4019091D5010297F9F4E0915302F0911D
:100A4000540280819181008111816AE070E00E94EE
:100A5000FA079B01FE0131962E0F3F1FC8016AE085
:100A600070E00E94FA07E80FF91FD9018C916081AC
:100A700041E050E00E94A7048091D2019091D301FF
:100A8000029730F48091D4019091D501019719F526
:100A90001092D3011092D201E0915102F0915202D2
:100AA00080819181008111816AE070E00E94FA07E3
:100AB0009B01FE0131962E0F3F1FC8016AE070E0D6
:100AC0000E94FA07E80FF91FD9018C91608142E07A
:100AD00050E00E94A7042A960FB6F894DEBF0FBE1E
:100AE000CDBFCF91DF911F910F910895809150025A
:100AF000803511F481E401C080E58093500280E0EC
:100B000060E00E94F603809150020E9480030895E5
:100B1000E0915502F091560280819181CC97A9F421
:100B200080915302909154020296909354028093C4
:100B3000530286ED91E0909356028093550281E036
:100B400090E09093D3018093D201E0915302F09111
:100B5000540280819181CC97E1F4E0915102F091AF
:100B600052023296F0935202E09351023297828100
:100B700093810C9711F40E94760586ED91E0909395
:100B800054028093530282E090E09093D3018093CB
:100B9000D201E0915102F0915202808191810D9732
:100BA00061F488ED91E0909352028093510282E0CB
:100BB00090E09093D3018093D2010E94D9040895CC
:100BC000809155029091560202969093560280931E
:100BD00055020E94880508951F920F920FB60F923A
:100BE0000BB60F9211242F933F934F935F936F9304
:100BF0007F938F939F93AF93BF93EF93FF930E9445
:100C0000E005FF91EF91BF91AF919F918F917F91FF
:100C10006F915F914F913F912F910F900BBE0F906D
:100C20000FBE0F901F9018958091D4019091D5011F
:100C30000197A1F4E0915102F09152023297F093A2
:100C40005202E0935102329680819181019731F4F2
:100C50008EEE91E090935202809351028091D401E4
:100C60009091D5010297A1F4E0915302F0915402C2
:100C70003297F0935402E09353023296808191812F
:100C8000892B31F48CE492E09093540280935302C8
:100C90008091D4019091D5010397A1F4E091550280
:100CA000F09156023297F0935602E0935502329635
:100CB00080819181892B31F48CE492E090935602EB
:100CC000809355020E94D9048091D4019091D5015E
:100CD000892B11F40E94760508958091D40190919A
:100CE000D5010197A1F4E0915102F09152023296A0
:100CF000F0935202E09351023297828193810D97D3
:100D000031F488ED91E090935202809351028091EA
:100D1000D4019091D5010297A1F4E0915302F09192
:100D200054023296F0935402E09353023297828138
:100D30009381CC9731F486ED91E0909354028093A7
:100D400053028091D4019091D5010397A1F4E091D1
:100D50005502F09156023296F0935602E0935502F6
:100D6000329782819381CC9731F486ED91E0909314
:100D70005602809355020E94D9048091D40190912B
:100D8000D501892B11F40E9476050895DF93CF9346
:100D9000CDB7DEB728970FB6F894DEBF0FBECDBF34
:100DA000DE011196E6ECF1E088E001900D928150B1
:100DB000E1F78091D4019091D50101969093D501EE
:100DC0008093D4018091D4019091D501049721F4AE
:100DD0001092D5011092D401E091D401F091D50187
:100DE000EE0FFF1FEC0FFD1F80E061810E94F603F4
:100DF00028960FB6F894DEBF0FBECDBFCF91DF911E
:100E0000089583B38F77893719F40E946D0616C051
:100E10008C3719F40E94140611C08D3619F40E9403
:100E2000C6060CC0833751F481E08093D101109243
:100E3000D5011092D4018CE00E94E302809BFECF8A
:100E40000895FF920F931F9380E060E00E94F603E5
:100E50008EE00E94E302EBEFFE2E0EEF1FEEF5BADE
:100E60000E9401078091D101813071F005BB0E9481
:100E700001078091D101813039F015BB0E94010733
:100E80008091D101813059F71092D1011F910F91BA
:100E9000FF900895CF92DF92EF92FF920F931F93EE
:100EA000CF93DF930E94F6021FBC8CE08EBD80E8DA
:100EB0008FBF80E187BF86BF84EF91E00197F1F794
:100EC00080E090E0C6EDD1E0FC01EE0FFF1FEC0FDB
:100ED000FD1F9183808301968D33910599F78DE7EE
:100EE00091E00E947303D0935602C0935502D093B1
:100EF0005402C09353026296D0935202C09351029F
:100F000081E48093500215E0C12E04EF11E0B8E0B7
:100F1000DB2EACE0EA2EFFEEFF2EC2E1DAE7C5BA27
:100F2000C8010197F1F78091CE01813059F4809189
:100F3000CF01873639F41092CE01DEBC0E94210722
:100F4000EEBCF5BADBBDCABD82E090E00E94950020
:100F50000A9729F788E08EBDDF91CF911F910F91FD
:100F6000FF90EF90DF90CF900895CF93DF9380E0D4
:100F700090E00E949500EC018130910519F40E94E7
:100F80005F0212C08230910519F40E942E0410C035
:100F90008330910519F40E9404010AC08430910540
:100FA00019F40E94850404C0259711F40E944A0791
:100FB000DF91CF910895CF93DF930E942E03C4EF6A
:100FC000D1E00E94F60289E891E00E947303CE010D
:100FD0000197F1F781E060E00E94F6030E949D0313
:100FE0000E9487030E94B507ECCF81E487B983E8AC
:100FF00086B90895AA1BBB1B51E107C0AA1FBB1FDE
:10100000A617B70710F0A61BB70B881F991F5A9594
:0C101000A9F780959095BC01CD010895D2
:10101C0035003000313000313500313600313700C9
:10102C003138003139003230003231003232003286
:10103C003300323400323500323600323700323869
:10104C000032390033300033310033320033330097
:10105C003334003335003336003337003338003344
:10106C003900343000343500353000353500363039
:10107C00003635003730003735003830006170707D
:10108C00726F7820006465677265654300414D207E
:10109C0030393A30303A3030005072657373202357
:1010AC0020746F2053746172740081E749432713D5
:1010BC0011870103303132333435363738394142F8
:1010CC00434445461C19161512100E0D303132339F
:0E10DC003435363738390000040007000A00AA
:00000001FF
