:100000000C9446000C9444020C9465000C9465001A
:100010000C9465000C9465000C9465000C946500CC
:100020000C9465000C9465000C9465000C946500BC
:100030000C9440030C9465000C9465000C946500CE
:100040000C9465000C9465000C9465000C9465009C
:100050000C9465000C9465000C9465000C9465008C
:100060000C9465000C9465000C9465000C9465007C
:100070000C9465000C9465000C9465000C9465006C
:100080000C9465000C9465000C94650011241FBE4F
:10009000CFEFD0E1DEBFCDBF11E0A0E0B1E0EAEDEF
:1000A000F6E000E00BBF02C007900D92A431B1074B
:1000B000D9F711E0A4E1B1E001C01D92A032B1076F
:1000C000E1F70E9417010C9400000C9400001FBC83
:1000D0008CE08EBD80E88FBF80E187BF86BF08952A
:1000E000089585E184BB8FEE85BB80E88FBF82E0F9
:1000F00080936A0081E089BF0895E5E6F0E0908191
:10010000997F908390819160908390E1292F2A9527
:10011000F1F78BBB9A95F1F780818E7F80830895EC
:1001200081E00E947D0084EF91E00197F1F708954E
:100130000F931F938FEF8ABB87E08093640088E35F
:100140000E947D0004EF11E0C8010197F1F788E3F8
:100150000E947D00C8010197F1F788E30E947D00AD
:10016000C8010197F1F78EE00E947D00C801019758
:10017000F1F781E00E947D00C8010197F1F786E068
:100180000E947D00C8010197F1F71F910F9108951A
:100190000F931F938EEF81BB8FEF82BB04EF11E0B3
:1001A000C8010197F1F70E949800C8010197F1F783
:1001B00085E184BB8FEE85BB90E89FBF82E0809392
:1001C0006A0081E089BFF8013197F1F71FBC8CE02C
:1001D0008EBD9FBF80E187BF86BFC8010197F1F741
:1001E0001F910F910895E5E6F0E09081946090836F
:1001F00090819D7F908390819160908390E19A950A
:10020000F1F78BBB82EE94E00197F1F780818E7F4E
:1002100080830895CF93DF93EC0103C00E94F30025
:10022000219688818823D1F7DF91CF9108950E948C
:10023000C80080E091E00E940A0180E580931E01E1
:1002400085E38093180180931D0189E380931C014D
:1002500084E380931F0181E38093190180931B0144
:1002600082E19AE79BBD8ABDFDCF0E94F30084EF37
:1002700091E00197F1F708950F931F93CF93DF93C8
:10028000EC010CE41DE10CC089910E94F300C8014F
:100290000197F1F788E10E947D00C8010197F1F70D
:1002A0008981882389F788810E943501DF91CF9168
:1002B0001F910F9108958295880F880F807C860F7B
:1002C00080680E947D008AEF90E00197F1F7089521
:1002D000DF93CF93CDB7DEB728970FB6F894DEBF84
:1002E0000FBECDBFDE011196ECE0F1E088E0019099
:1002F0000D928150E1F7E0911601F0911701EE0F98
:10030000FF1FEC0FFD1F61810E945B0180911601B0
:10031000909117010196909317018093160104970D
:1003200021F4109217011092160128960FB6F89436
:10033000DEBF0FBECDBFCF91DF9108958091160132
:1003400090911701892B89F480911E01813411F459
:1003500080E501C081E480931E0180911E010E940E
:10036000350180E060E00E945B0180911601909170
:100370001701019709F04BC090911B01903329F4AC
:10038000809119018933A0F407C0913309F03FC06F
:1003900080911901823320F5809119018F5F80933C
:1003A000190180E064E00E945B018091190115C091
:1003B000893369F581E380931B019093190180E0F3
:1003C00064E00E945B01809119010E94350180E088
:1003D00063E00E945B0180911B010E94350108953A
:1003E0008233A9F480E380931B019093190180E08C
:1003F00064E00E945B01809119010E94350180E058
:1004000063E00E945B0180911B010E943501089509
:1004100083B38F77893719F40E949E010CC08C3703
:1004200051F08D3619F40E94680105C0833719F424
:1004300081E080931501809BFECF0895FF920F937A
:100440001F9380E060E00E945B012BEFF22E0EEF25
:100450001FEEF5BA0E94080280911501813071F0FB
:1004600005BB0E94080280911501813039F015BB4F
:100470000E94080280911501813059F710921501F0
:100480001F910F91FF9008951F920F920FB60F9238
:100490000BB60F9211242F933F934F935F936F935B
:1004A0007F938F939F93AF93BF93EF93FF9388EACC
:1004B00091E60197F1F780990EC083B38F7780930F
:1004C0001401873641F488E08EBD0E941E028CE044
:1004D0008EBD8FEE85BBFF91EF91BF91AF919F9144
:1004E0008F917F916F915F914F913F912F910F90DD
:1004F0000BBE0F900FBE0F901F90189580E06AE022
:100500000E945B0180911D010E94350180911A01BA
:10051000882309F440C080E069E00E945B0180917B
:1005200018010E94350180911A018230A0F180E00B
:1005300067E00E945B0180911C010E94350180915F
:100540001A01833040F180E066E00E945B018091F7
:100550001F010E94350180911A018430E0F080E093
:1005600064E00E945B01809119010E943501809135
:100570001A01853080F080E063E00E945B01809189
:100580001B010E94350180E060E00E945B018091C8
:100590001E010E94350110921A01089580911D01DB
:1005A0008F5F80931D0110921A018A3308F465C091
:1005B00020E320931D01809118018F5F8093180123
:1005C00091E090931A01863308F457C020931801E4
:1005D00080911C018F5F80931C0192E090931A011F
:1005E0008A3308F44AC020931C0180911F018F5F59
:1005F00080931F0193E090931A018633F0F12093CA
:100600001F01809119018F5F8093190194E09093ED
:100610001A018A3360F080911B01803341F480938A
:10062000190181E380931B0185E080931A01909169
:100630001901923391F480911B01813371F48091FF
:100640001E01813411F480E501C081E480931E0114
:1006500080911A018F5F80931A0180911B01813371
:1006600061F4933350F08093190180E380931B0170
:1006700080911A018F5F80931A010E947E02089573
:100680001F920F920FB60F920BB60F9211242F9359
:100690003F934F935F936F937F938F939F93AF930A
:1006A000BF93EF93FF930E94CE02FF91EF91BF9112
:1006B000AF919F918F917F916F915F914F913F91FA
:1006C0002F910F900BBE0F900FBE0F901F9018959B
:0A06D0008EEF81BB8FEF82BB08950F
:1006DA00504D2031313A34393A35350000000400A2
:0406EA0007000A00FB
:00000001FF
