:100000000C9446000C94EA000C9465000C94650076
:100010000C9465000C9465000C9465000C946500CC
:100020000C9465000C9465000C9465000C946500BC
:100030000C9465000C9465000C9465000C946500AC
:100040000C9465000C9465000C9465000C9465009C
:100050000C9465000C9465000C9465000C9465008C
:100060000C9465000C9465000C9465000C9465007C
:100070000C9465000C9465000C9465000C9465006C
:100080000C9465000C9465000C94650011241FBE4F
:10009000CFEFD0E1DEBFCDBF11E0A0E0B1E0E0EDF9
:1000A000F3E000E00BBF02C007900D92AA39B10740
:1000B000D9F711E0AAE9B1E001C01D92AB39B1074F
:1000C000E1F70E94CB010C94E6010C94000085E15D
:1000D00084BB15BA80E88FBF82E080936A0081E01C
:1000E00089BF08958EEF81BB8FEF82BB0895E5E64F
:1000F000F0E09081997F908390819160908390E16E
:10010000292F2A95F1F78BBB9A95F1F780818E7F85
:10011000808308950F931F938FEF8ABB80936400B1
:1001200088E30E94770004EF11E0C8010197F1F71E
:1001300088E30E947700C8010197F1F788E30E94E5
:100140007700C8010197F1F78DE00E947700C801A0
:100150000197F1F781E00E947700C8010197F1F75C
:1001600086E00E947700C8010197F1F71F910F9177
:10017000089581E00E94770084EF91E00197F1F704
:10018000089590916500946090936500909165004A
:100190009D7F9093650090916500916090936500BC
:1001A00090E19A95F1F78BBB80EE9EE229E130E079
:1001B000F9013197F1F70197D9F7809165008E7FAA
:1001C0008093650008950E94C10084EF91E001973B
:1001D000F1F708951F920F920FB60F920BB60F9280
:1001E00011242F933F934F935F936F937F938F933C
:1001F0009F93AF93BF93EF93FF9388EA91E60197A4
:10020000F1F7809906C08AE70E94E30081E08093BD
:100210009A01FF91EF91BF91AF919F918F917F9143
:100220006F915F914F913F912F910F900BBE0F9067
:100230000FBE0F901F9018950F931F9384B105B1B7
:100240008F708A3018F4182F105D02C0182F195CB7
:1002500080E30E94E3000370802F805D0E94E30032
:10026000812F0E94E300812F0E94E30080E20E9420
:10027000E3001F910F910895CF93DF93EC0103C02A
:100280000E94C100219688818823D1F7DF91CF9108
:1002900008958295880F880F807C860F80680E9461
:1002A00077008AEF90E00197F1F70895CF93DF93FD
:1002B000C4B1D5B10E941C0181E060E00E944901F7
:1002C000D370CE018D5D90408134910520F480E0A3
:1002D00091E00E943C01CE018E5191408D369105F6
:1002E00020F48DE091E00E943C01CE018B589140BA
:1002F0008A35910520F48BE191E00E943C01CE010A
:10030000855E9140C79720F489E291E00E943C010C
:10031000CE018C519240C79720F487E391E00E9470
:100320003C01CE0183559240C59720F485E491E0CD
:100330000E943C01CE01885892408834910520F4F7
:1003400083E591E00E943C01CE01805D92408E34B5
:10035000910520F481E691E00E943C01CE018E518E
:100360009340CD9720F48FE691E00E943C01CE01AE
:100370008B5593408C9720F48DE791E00E943C01CF
:10038000C758D3406D9720F48BE891E00E943C0160
:10039000DF91CF9108950E948A0084EF91E0019748
:1003A000F1F781E487B983E886B9369A83E08A95C4
:1003B000F1F73699FECF0E94560187E30E94E300D1
:1003C000FFCF81E487B983E886B90895F894FFCF19
:1003D000617070726F78203064656743006170707F
:1003E000726F782031306465674300617070726F9E
:1003F000782032306465674300617070726F7820D6
:1004000032356465674300617070726F78203330F5
:100410006465674300617070726F7820333564657E
:10042000674300617070726F782034306465674391
:1004300000617070726F78203530646567430061C9
:100440007070726F78203630646567430061707039
:10045000726F782037306465674300617070726F27
:0A046000782038306465674300001F
:00000001FF
